:100000000C9434000C9425010C94AA000C9451001B
:100010000C9451000C9451000C9451000C9451001C
:100020000C9451000C9451000C9451000C9451000C
:100030000C9451000C9451000C9451000C945100FC
:100040000C9451000C9451000C9451000C945100EC
:100050000C9451000C9451000C9451000C945100DC
:100060000C9451000C94510011241FBECFEFD8E026
:10007000DEBFCDBF11E0A0E0B1E0E8E4F4E002C0F3
:1000800005900D92AA30B107D9F711E0AAE0B1E0CE
:1000900001C01D92A131B107E1F70E9417010C9434
:1000A00022020C94D200CF93DF9390E041E050E025
:1000B000C0E1D7E2682F70E0A8ECB0E013C0599A15
:1000C000FE013197F1F759984617570744F428EE87
:1000D00033E0FD013197F1F721503040D1F79F5FB8
:1000E0004F5F5F4F981758F3DF91CF910895CF93EB
:1000F000DF9390E041E050E0C0E4DCE9682F70E07D
:10010000A8ECB0E013C05C9AFE013197F1F75C985F
:100110004617570744F428EE33E0FD013197F1F715
:1001200021503040D1F79F5F4F5F5F4F981758F3D2
:10013000DF91CF91089583B7817F846083BF83B7B8
:10014000816083BF83B7816083BF889583B78E7FCB
:1001500083BF08951F920F920FB60F9211248F93B1
:100160009F9383B78E7F83BFF89480910E0190E0B8
:10017000882309F491E090930E0180910E01882369
:1001800021F080916900846003C0809169008B7FB9
:100190008093690078949F918F910F900FBE0F907C
:1001A0001F9018951F920F920FB60F9211240F9067
:1001B0000FBE0F901F90189580930D018DE091E078
:1001C00061E00E945F0181E00E94530008958FEE7C
:1001D00084B984E085B98FEF87B918B88AB1836F85
:1001E0008AB98AB1837F8AB98BB18C708BB98BB194
:1001F0008C608BB980916900886080936900E99A6E
:100200000E94DE0185E091E00E94AF0180E091E074
:100210000E94A9010E944A0184EF91E028EC30E09D
:10022000F9013197F1F70197D9F7789408950E9471
:10023000E70080910E01882311F08FEF01C080E06C
:100240000E94DC000E949B00F4CF1F920F920FB619
:100250000F9211240F900FBE0F901F9018952A989F
:100260008FE30E941C022A9A08950E942F0190E0B9
:10027000807309F491E0892F08951F93162F2A980F
:100280008F7180620E941C02812F0E941C022A9A98
:100290001F91089510920F0180E069E30E943D01D3
:1002A000429A089580910F01882311F080E008950B
:1002B0002A988FEF0E941C022A9A807408951F9337
:1002C000CF93DF93EC01162F80910F018823E1F784
:1002D000429881E080930F0180E06AE30E943D0133
:1002E0002A9881EE0E941C022A9A2A9880EA0E948B
:1002F0001C02CE01612F0E940F022A9A429A0E948C
:1003000035018823E1F742986BE30E943D01429A50
:1003100010920F0187E060E30E943D0180E069E3F5
:100320000E943D01DF91CF911F910895FF920F939D
:100330001F938B01F42E2A988F7180620E941C02F9
:10034000C8016F2D0E940F022A9A1F910F91FF90F2
:100350000895BC0180E145E00E9496010895BC012A
:1003600042988AE045E00E949601429A0895FF92E1
:100370000F931F938B01F42E2A988F710E941C02F9
:10038000C801B8014F2D0E94F7012A9A1F910F91C1
:10039000FF9008950F931F938C012A9881E60E9485
:1003A0001C02C801B80141E00E94F7012A9A87E0C7
:1003B00060E40E943D011F910F910895229A429896
:1003C0002A9A0E94EC0185E062E00E943D0181E1F1
:1003D00061E00E943D01089584B1837C84B984B1B9
:1003E0008C6284B980E58CBD81E08DBD0895CF938A
:1003F000DF93EC01DB0120E030E00CC0FE01E20FF6
:10040000F31F80818EBD0DB407FEFDCF8EB58D9399
:100410002F5F3F4F241790F3DF91CF910895FC0198
:1004200090E007C080818EBD0DB407FEFDCF9F5FB9
:1004300031969617B8F308958EBD0DB407FEFDCF23
:080440008EB50895F894FFCF7A
:0A044800E7E7E7E7E7D7D7D7D7D7F4
:00000001FF
