:100000000C9434000C94EF010C94CE000C9451002D
:100010000C9451000C9451000C9451000C9451001C
:100020000C9451000C9451000C9451000C9451000C
:100030000C9451000C9451000C9451000C945100FC
:100040000C9451000C9451000C9451000C945100EC
:100050000C9451000C9451000C9451000C945100DC
:100060000C9451000C94510011241FBECFEFD8E026
:10007000DEBFCDBF11E0A0E0B1E0E0ECF4E002C0F3
:1000800005900D92AA30B107D9F711E0AAE0B1E0CE
:1000900001C01D92AF30B107E1F70E9424010C941A
:1000A0005E020C94DD00CF93DF9390E041E050E0DE
:1000B000C0E1D7E2682F70E0A8ECB0E013C0589A16
:1000C000FE013197F1F758984617570744F428EE88
:1000D00033E0FD013197F1F721503040D1F79F5FB8
:1000E0004F5F5F4F981758F3DF91CF910895CF93EB
:1000F000DF9390E041E050E0C0E1D7E2682F70E08C
:10010000A8ECB0E013C0599AFE013197F1F7599865
:100110004617570744F428EE33E0FD013197F1F715
:1001200021503040D1F79F5F4F5F5F4F981758F3D2
:10013000DF91CF910895CF93DF9390E041E050E0BD
:10014000C0E4DCE9682F70E0A8ECB0E013C05C9A72
:10015000FE013197F1F75C984617570744F428EEF3
:1001600033E0FD013197F1F721503040D1F79F5F27
:100170004F5F5F4F981758F3DF91CF91089583B782
:10018000817F846083BF83B7816083BF83B78160D1
:1001900083BF889583B78E7F83BF08951F920F9288
:1001A0000FB60F9211248F9381E080930A018F91F3
:1001B0000F900FBE0F901F9018951F920F920FB6C1
:1001C0000F9211240F900FBE0F901F9018958FEE75
:1001D00084B984E085B98FEF87B918B88AB1836F85
:1001E0008AB98AB1837F8AB98BB18C708BB98BB194
:1001F0008C608BB980916900886080936900E99A6E
:100200000E94140284EF91E028EC30E0F90131976C
:10021000F1F70197D9F7789485E091E00E94C00149
:1002200080E091E00E94BA010E945F0108951F934F
:10023000182F0E945F0110930D018DE091E061E0A5
:100240000E9474011F9108950E94E70080910A01A5
:10025000813041F48FEF0E94170181E00E949B00E2
:1002600010920A010E946701882381F38DE091E0DA
:100270000E94DB0180910D018F3F19F45998589A23
:10028000E5CF599A5898E2CF2A988FE30E945802F6
:100290002A9A08950E94440190E0807309F491E045
:1002A000892F08951F93162F2A988F7180620E94BC
:1002B0005802812F0E9458022A9A1F910895109285
:1002C0000E0180E06BE30E945201429A08958091F2
:1002D0000E01882311F080E008952A988FEF0E9484
:1002E00058022A9A807408951F93CF93DF93EC01EC
:1002F000162F80910E018823E1F7429881E08093C8
:100300000E0180E06AE30E9452012A9881EE0E9469
:1003100058022A9A2A9880EA0E945802CE01612F38
:100320000E944B022A9A429A0E944A018823E1F7CE
:1003300042986BE30E945201429A10920E0187E0AC
:1003400060E30E945201DF91CF911F910895FF92C7
:100350000F931F938B01F42E2A988F7180620E9455
:100360005802C8016F2D0E944B022A9A1F910F91CB
:10037000FF900895BC0180E145E00E94A701089527
:10038000BC0142988AE045E00E94A701429A089584
:10039000FF920F931F938B01F42E2A988F710E9466
:1003A0005802C801B8014F2D0E9433022A9A1F91AA
:1003B0000F91FF9008950F931F938C012A9881E667
:1003C0000E945802C801B80141E00E9433022A9AF3
:1003D00087E060E40E9452011F910F9108951F92DF
:1003E0000F920FB60F9211242F933F934F935F9369
:1003F0006F937F938F939F93AF93BF93EF93FF93ED
:1004000081E00E949B00FF91EF91BF91AF919F917E
:100410008F917F916F915F914F913F912F910F90AD
:100420000FBE0F901F901895229A42982A9AE9E6DB
:10043000F0E0808182608083E89A0E94280285E053
:1004400062E00E94520181E161E00E945201089540
:1004500084B1837C84B984B18C6284B980E58CBD1D
:1004600081E08DBD0895CF93DF93EC01DB0120E0A7
:1004700030E00CC0FE01E20FF31F80818EBD0DB491
:1004800007FEFDCF8EB58D932F5F3F4F241790F35E
:10049000DF91CF910895FC0190E007C080818EBD6F
:1004A0000DB407FEFDCF9F5F31969617B8F3089500
:1004B0008EBD0DB407FEFDCF8EB50895F894FFCF25
:0A04C000D7D7D7D7D7E7E7E7E7E77C
:00000001FF
